01REMESSA01COBRANCA       00000000000000226329CCM PROF AREA INFORM CVEL - AC237BRADESCO       041006        MX0000697                                                                                                                                                                                                                                                                                     000001
100000000000000000000009035090164838160100376034370           0000000006010037603800000000001N           0  0106001980  03110600000000030000000000001N220906000000000000000070000000000000000000000000000000000000000000000100072382155949SUELI SANTINA BURCHI                    RUA PAPA SAO MAURICIO, 364                          85835000082642653000139  OLINET REPRESENTACOES COMERCIAIS LTDA      000002
2PROTESTO APOS 05 DIAS DO VCTO                                                                                                                                                                                                                                                                                                                                                0090350901648381060100376038000003
100000000000000000000009035090164838160100376044370           0000000006010037604600000000001N           0  0106001983  03110600000000035000000000001N220906000000000000000090000000000000000000000000000000000000000000000100099455340925ARIOVALDO GUELFI DOS SANTOS             AVENIDA PADRE ANCHIETA, 688                         85835000082642653000139  OLINET REPRESENTACOES COMERCIAIS LTDA      000004
2PROTESTO APOS 05 DIAS DO VCTO                                                                                                                                                                                                                                                                                                                                                0090350901648381060100376046000005
100000000000000000000009035090164838160100376054370           0000000006010037605400000000001N           0  0105001982  03110600000000050000000000001N220906000000000000000130000000000000000000000000000000000000000000000100004326390980EDILSON CARLOS GRACO                    RUA PAPA SAO CALIXTO, 439                           85835000082642653000139  OLINET REPRESENTACOES COMERCIAIS LTDA      000006
2PROTESTO APOS 05 DIAS DO VCTO                                                                                                                                                                                                                                                                                                                                                0090350901648381060100376054000007
100000000000000000000009035090164838160100376064370           0000000006010037606200000000001N           0  0106001981  03110600000000035000000000001N220906000000000000000090000000000000000000000000000000000000000000000100045292540978VALDIR ANTONIO MAULONI                  RUA SAO NICOLAU, 21                                 85835000082642653000139  OLINET REPRESENTACOES COMERCIAIS LTDA      000008
2PROTESTO APOS 05 DIAS DO VCTO                                                                                                                                                                                                                                                                                                                                                0090350901648381060100376062000009
100000000000000000000009035090164838160100376074370           0000000006010037607000000000001N           0  0106001993  03110600000000050000000000001N220906000000000000000130000000000000000000000000000000000000000000000100030315425920JAIR FAGNAMI                            RUA PAPA SAO NICOLAU, 474                           85835000082642653000139  OLINET REPRESENTACOES COMERCIAIS LTDA      000010
2PROTESTO APOS 05 DIAS DO VCTO                                                                                                                                                                                                                                                                                                                                                0090350901648381060100376070000011
100000000000000000000009035090164838160100376084370           0000000006010037608900000000001N           0  0106001991  03110600000000040000000000001N220906000000000000000100000000000000000000000000000000000000000000000100005677733962SIMONE GONCALVES FURLAN                 RUA PE LEONEL FRANCA, 520                           85835000082642653000139  OLINET REPRESENTACOES COMERCIAIS LTDA      000012
2PROTESTO APOS 05 DIAS DO VCTO                                                                                                                                                                                                                                                                                                                                                0090350901648381060100376089000013
100000000000000000000009035090164838160100376094370           0000000006010037609700000000001N           0  0106001989  03110600000000050000000000001N220906000000000000000130000000000000000000000000000000000000000000000100050312537972HAMILTON LELIS GONCALVES                AV PE ANCHIETA, 494                                 85835000082642653000139  OLINET REPRESENTACOES COMERCIAIS LTDA      000014
2PROTESTO APOS 05 DIAS DO VCTO                                                                                                                                                                                                                                                                                                                                                0090350901648381060100376097000015
100000000000000000000009035090164838160100376104370           0000000006010037610000000000001N           0  0106001988  03110600000000040000000000001N220906000000000000000100000000000000000000000000000000000000000000000100058925309904CLAUDINEI FAXO                          R SAO LAZARO, 746                                   85835000082642653000139  OLINET REPRESENTACOES COMERCIAIS LTDA      000016
2PROTESTO APOS 05 DIAS DO VCTO                                                                                                                                                                                                                                                                                                                                                0090350901648381060100376100000017
100000000000000000000009035090164838160100376114370           0000000006010037611900000000001N           0  0105001987  03110600000000040000000000001N220906000000000000000100000000000000000000000000000000000000000000000100091115302949PAULO SERGIO SILVA                      R PE LEONEL FRAN, 666                               85835000082642653000139  OLINET REPRESENTACOES COMERCIAIS LTDA      000018
2PROTESTO APOS 05 DIAS DO VCTO                                                                                                                                                                                                                                                                                                                                                0090350901648381060100376119000019
100000000000000000000009035090164838160100376124370           0000000006010037612700000000001N           0  0106001986  03110600000000050000000000001N220906000000000000000130000000000000000000000000000000000000000000000100004342556618SHELLEN DE A. VILELA                    R PAPA SAO GREGORIO, 259                            85835000082642653000139  OLINET REPRESENTACOES COMERCIAIS LTDA      000020
2PROTESTO APOS 05 DIAS DO VCTO                                                                                                                                                                                                                                                                                                                                                0090350901648381060100376127000021
100000000000000000000009035090164838160100376134370           0000000006010037613500000000001N           0  0106001985  03110600000000035000000000001N220906000000000000000090000000000000000000000000000000000000000000000100004217497920ARIOVALDO GOMES DOS SANTOS              RUA SAO FRANCISCO DE BORJA, 669                     85835000082642653000139  OLINET REPRESENTACOES COMERCIAIS LTDA      000022
2PROTESTO APOS 05 DIAS DO VCTO                                                                                                                                                                                                                                                                                                                                                0090350901648381060100376135000023
100000000000000000000009035090164838160100376144370           0000000006010037614300000000001N           0  0106001984  03110600000000050000000000001N220906000000000000000130000000000000000000000000000000000000000000000100087878127972ROSANE A C M MANICHI                    PR 279 KM 111, -COPACOL S/N                         85835000082642653000139  OLINET REPRESENTACOES COMERCIAIS LTDA      000024
2PROTESTO APOS 05 DIAS DO VCTO                                                                                                                                                                                                                                                                                                                                                0090350901648381060100376143000025
100000000000000000000009035090164838160100376154370           0000000006010037615100000000001N           0  0106001994  03110600000000050000000000001N220906000000000000000130000000000000000000000000000000000000000000000278442019000185SERGIO ROBERTO MARTELLI                 AVENIDA PADRE ANCHIETA, 642                         85835000082642653000139  OLINET REPRESENTACOES COMERCIAIS LTDA      000026
2PROTESTO APOS 05 DIAS DO VCTO                                                                                                                                                                                                                                                                                                                                                0090350901648381060100376151000027
100000000000000000000009035090164838160100376164370           0000000006010037616P00000000001N           0  0106001825  03110600000000060000000000001N220906000000000000000150000000000000000000000000000000000000000000000281269573000117APAE - IBEMA                            RUA PATO BRANCO, 1396                               85478000082642653000139  OLINET REPRESENTACOES COMERCIAIS LTDA      000028
2PROTESTO APOS 05 DIAS DO VCTO                                                                                                                                                                                                                                                                                                                                                009035090164838106010037616P000029
100000000000000000000009035090164838160100376174370           0000000006010037617800000000001N           0  0106001824  03110600000000050000000000001N220906000000000000000130000000000000000000000000000000000000000000000275695361000107BODANESE INDL. MADEIRAS LTDA            RUA ITALO GOMES NAPOLI, 1241                        85478000082642653000139  OLINET REPRESENTACOES COMERCIAIS LTDA      000030
2PROTESTO APOS 05 DIAS DO VCTO                                                                                                                                                                                                                                                                                                                                                0090350901648381060100376178000031
100000000000000000000009035090164838160100376184370           0000000006010037618600000000001N           0  0105001823  03110600000000060000000000001N220906000000000000000150000000000000000000000000000000000000000000000204656360000105POSTO AMERICA LATINA LTDA               RODOVIA BR 277, -S/N                                85478000082642653000139  OLINET REPRESENTACOES COMERCIAIS LTDA      000032
2PROTESTO APOS 05 DIAS DO VCTO                                                                                                                                                                                                                                                                                                                                                0090350901648381060100376186000033
100000000000000000000009035090164838160100376194370           0000000006010037619400000000001N           0  0106001822  03110600000000065000000000001N220906000000000000000160000000000000000000000000000000000000000000000100033927073920JOSE ORLANDO PORTOLAN                   RUA CASCAVEL, 2001                                  85478000082642653000139  OLINET REPRESENTACOES COMERCIAIS LTDA      000034
2PROTESTO APOS 05 DIAS DO VCTO                                                                                                                                                                                                                                                                                                                                                0090350901648381060100376194000035
100000000000000000000009035090164838160100376204370           0000000006010037620800000000001N           0  0106001821  03110600000000065000000000001N220906000000000000000160000000000000000000000000000000000000000000000280227796001120EXPRESSO PRINCESA DOS CAMPOS S.A        RUA MARIPA,                                         85478000082642653000139  OLINET REPRESENTACOES COMERCIAIS LTDA      000036
2PROTESTO APOS 05 DIAS DO VCTO                                                                                                                                                                                                                                                                                                                                                0090350901648381060100376208000037
100000000000000000000009035090164838160100376214370           0000000006010037621600000000001N           0  0106001820  03110600000000050000000000001N220906000000000000000130000000000000000000000000000000000000000000000100001755933967CARLOS ADRIANO SCHRAM                   AV NEY E NAPOLY, 1522                               85478000082642653000139  OLINET REPRESENTACOES COMERCIAIS LTDA      000038
2PROTESTO APOS 05 DIAS DO VCTO                                                                                                                                                                                                                                                                                                                                                0090350901648381060100376216000039
100000000000000000000009035090164838160100376224370           0000000006010037622400000000001N           0  0106001834  03110600000000050000000000001N220906000000000000000130000000000000000000000000000000000000000000000202360567000102CONFECCOES TATIANE                      RUA NEY E NAPOLI, 1504                              85478000082642653000139  OLINET REPRESENTACOES COMERCIAIS LTDA      000040
2PROTESTO APOS 05 DIAS DO VCTO                                                                                                                                                                                                                                                                                                                                                0090350901648381060100376224000041
100000000000000000000009035090164838160100376234370           0000000006010037623200000000001N           0  0106001833  03110600000000050000000000001N220906000000000000000130000000000000000000000000000000000000000000000206066321000175ZIELAK E ZIELAK LTDA _SUPER CENTRAL_    RUA MARANHAO, 480                                   85478000082642653000139  OLINET REPRESENTACOES COMERCIAIS LTDA      000042
2PROTESTO APOS 05 DIAS DO VCTO                                                                                                                                                                                                                                                                                                                                                0090350901648381060100376232000043
100000000000000000000009035090164838160100376244370           0000000006010037624000000000001N           0  0106001832  03110600000000040000000000001N220906000000000000000100000000000000000000000000000000000000000000000100049384562068VOLMAR LONGO                            TRAVESSA HELENA COLODI, 50                          85478000082642653000139  OLINET REPRESENTACOES COMERCIAIS LTDA      000044
2PROTESTO APOS 05 DIAS DO VCTO                                                                                                                                                                                                                                                                                                                                                0090350901648381060100376240000045
100000000000000000000009035090164838160100376254370           0000000006010037625900000000001N           0  0106001831  03110600000000050000000000001N220906000000000000000130000000000000000000000000000000000000000000000100055433260925JOAO BATISTA LINHARES                   RUA PITANGA, 364                                    85478000082642653000139  OLINET REPRESENTACOES COMERCIAIS LTDA      000046
2PROTESTO APOS 05 DIAS DO VCTO                                                                                                                                                                                                                                                                                                                                                0090350901648381060100376259000047
100000000000000000000009035090164838160100376264370           0000000006010037626700000000001N           0  0106001830  03110600000000050000000000001N220906000000000000000130000000000000000000000000000000000000000000000100002736573994ALAIN VIGO                              RUA IRATI, 614                                      85478000082642653000139  OLINET REPRESENTACOES COMERCIAIS LTDA      000048
2PROTESTO APOS 05 DIAS DO VCTO                                                                                                                                                                                                                                                                                                                                                0090350901648381060100376267000049
100000000000000000000009035090164838160100376274370           0000000006010037627500000000001N           0  0106001829  03110600000000050000000000001N220906000000000000000130000000000000000000000000000000000000000000000100079386890925MARISA NARDI PILOTTI                    RUA MARANHAO, 131                                   85478000082642653000139  OLINET REPRESENTACOES COMERCIAIS LTDA      000050
2PROTESTO APOS 05 DIAS DO VCTO                                                                                                                                                                                                                                                                                                                                                0090350901648381060100376275000051
100000000000000000000009035090164838160100376284370           0000000006010037628300000000001N           0  0106001827  03110600000000050000000000001N220906000000000000000130000000000000000000000000000000000000000000000100076629490959GENIRA PILOTI HELDEN                    RUA MARANHAO, -S/N                                  85478000082642653000139  OLINET REPRESENTACOES COMERCIAIS LTDA      000052
2PROTESTO APOS 05 DIAS DO VCTO                                                                                                                                                                                                                                                                                                                                                0090350901648381060100376283000053
100000000000000000000009035090164838160100376294370           0000000006010037629100000000001N           0  0106001826  03110600000000050000000000001N220906000000000000000130000000000000000000000000000000000000000000000100005008961942SOLENI ZUCHELLO PAVAN                   RUA MARANHAO, 101                                   85478000082642653000139  OLINET REPRESENTACOES COMERCIAIS LTDA      000054
2PROTESTO APOS 05 DIAS DO VCTO                                                                                                                                                                                                                                                                                                                                                0090350901648381060100376291000055
100000000000000000000009035090164838160100376304370           0000000006010037630500000000001N           0  0106001842  03110600000000050000000000001N220906000000000000000130000000000000000000000000000000000000000000000100066329620920LEOMAR ANTONIO ZANATTA                  RUA ESTADO DO RIO, 1486                             85478000082642653000139  OLINET REPRESENTACOES COMERCIAIS LTDA      000056
2PROTESTO APOS 05 DIAS DO VCTO                                                                                                                                                                                                                                                                                                                                                0090350901648381060100376305000057
100000000000000000000009035090164838160100376314370           0000000006010037631300000000001N           0  0106001841  03110600000000060000000000001N220906000000000000000150000000000000000000000000000000000000000000000203554710000151S.A. BELIM E CIA LTDA                   BR 277, -KM 536.5                                   85478000082642653000139  OLINET REPRESENTACOES COMERCIAIS LTDA      000058
2PROTESTO APOS 05 DIAS DO VCTO                                                                                                                                                                                                                                                                                                                                                0090350901648381060100376313000059
100000000000000000000009035090164838160100376324370           0000000006010037632100000000001N           0  0106001840  03110600000000060000000000001N220906000000000000000150000000000000000000000000000000000000000000000100004098529963POLLYANA CRISTINA FORTUNATO VIGO        RUA LARANJEIRAS DO SUL, 1030                        85478000082642653000139  OLINET REPRESENTACOES COMERCIAIS LTDA      000060
2PROTESTO APOS 05 DIAS DO VCTO                                                                                                                                                                                                                                                                                                                                                0090350901648381060100376321000061
100000000000000000000009035090164838160100376334370           0000000006010037633P00000000001N           0  0106001839  03110600000000060000000000001N220906000000000000000150000000000000000000000000000000000000000000000268763846000117SUPERMERCADO MIOTTO                     RUA MARINGA, 126                                    85478000082642653000139  OLINET REPRESENTACOES COMERCIAIS LTDA      000062
2PROTESTO APOS 05 DIAS DO VCTO                                                                                                                                                                                                                                                                                                                                                009035090164838106010037633P000063
100000000000000000000009035090164838160100376344370           0000000006010037634800000000001N           0  0106001838  03110600000000040000000000001N220906000000000000000100000000000000000000000000000000000000000000000206079004000193AUTO ESCOLA PORTAL - IBEMA              RUA MARINGA - TERMINAL RODOVIA, -S/N                85478000082642653000139  OLINET REPRESENTACOES COMERCIAIS LTDA      000064
2PROTESTO APOS 05 DIAS DO VCTO                                                                                                                                                                                                                                                                                                                                                0090350901648381060100376348000065
100000000000000000000009035090164838160100376354370           0000000006010037635600000000001N           0  0106001837  03110600000000060000000000001N220906000000000000000150000000000000000000000000000000000000000000000100033496080949ARLETE MARIA DAGA                       RUA PRIMEIRO DE MAIO, 67                            85478000082642653000139  OLINET REPRESENTACOES COMERCIAIS LTDA      000066
2PROTESTO APOS 05 DIAS DO VCTO                                                                                                                                                                                                                                                                                                                                                0090350901648381060100376356000067
100000000000000000000009035090164838160100376364370           0000000006010037636400000000001N           0  0106001836  03110600000000050000000000001N220906000000000000000130000000000000000000000000000000000000000000000100057198306934ELIAS TOBALDINI                         RUA MARINGA, -S/N                                   85478000082642653000139  OLINET REPRESENTACOES COMERCIAIS LTDA      000068
2PROTESTO APOS 05 DIAS DO VCTO                                                                                                                                                                                                                                                                                                                                                0090350901648381060100376364000069
100000000000000000000009035090164838160100376374370           0000000006010037637200000000001N           0  0106001835  03110600000000040000000000001N220906000000000000000100000000000000000000000000000000000000000000000100091765978904JOCIMARA LUCIANO _BROETO_               AV NEY E NAPOLI, 1772                               85478000082642653000139  OLINET REPRESENTACOES COMERCIAIS LTDA      000070
2PROTESTO APOS 05 DIAS DO VCTO                                                                                                                                                                                                                                                                                                                                                0090350901648381060100376372000071
100000000000000000000009035090164838160100376384370           0000000006010037638000000000001N           0  0106001856  03110600000000050000000000001N220906000000000000000130000000000000000000000000000000000000000000000100055478832987MARCOS ANTONIO ANGELICO                 RUA LARANJEIRAS DO SUL, 1001                        85478000082642653000139  OLINET REPRESENTACOES COMERCIAIS LTDA      000072
2PROTESTO APOS 05 DIAS DO VCTO                                                                                                                                                                                                                                                                                                                                                0090350901648381060100376380000073
100000000000000000000009035090164838160100376394370           0000000006010037639900000000001N           0  0106001855  03110600000000040000000000001N220906000000000000000100000000000000000000000000000000000000000000000202221555000199MARLI D APARECIDA SILVA - REGINA MOVEIS RUA MARANHAO, 370                                   85478000082642653000139  OLINET REPRESENTACOES COMERCIAIS LTDA      000074
2PROTESTO APOS 05 DIAS DO VCTO                                                                                                                                                                                                                                                                                                                                                0090350901648381060100376399000075
100000000000000000000009035090164838160100376404370           0000000006010037640200000000001N           0  0106001854  03110600000000050000000000001N220906000000000000000130000000000000000000000000000000000000000000000100029480566915VILMAR PELEGRIN                         RUA FRANCISCO BELTRAO, 1312                         85478000082642653000139  OLINET REPRESENTACOES COMERCIAIS LTDA      000076
2PROTESTO APOS 05 DIAS DO VCTO                                                                                                                                                                                                                                                                                                                                                0090350901648381060100376402000077
100000000000000000000009035090164838160100376414370           0000000006010037641000000000001N           0  0106001853  03110600000000050000000000001N220906000000000000000130000000000000000000000000000000000000000000000100005438666962ZUZIELY APARECIDA ANTUNES               R. LARANJEIRAS DO SUL, -S/N                         85478000082642653000139  OLINET REPRESENTACOES COMERCIAIS LTDA      000078
2PROTESTO APOS 05 DIAS DO VCTO                                                                                                                                                                                                                                                                                                                                                0090350901648381060100376410000079
100000000000000000000009035090164838160100376424370           0000000006010037642900000000001N           0  0106001852  03110600000000050000000000001N220906000000000000000130000000000000000000000000000000000000000000000281740029000101AGROPECUARIA IBEMENSE                   RUA MARANHAO, 271                                   85478000082642653000139  OLINET REPRESENTACOES COMERCIAIS LTDA      000080
2PROTESTO APOS 05 DIAS DO VCTO                                                                                                                                                                                                                                                                                                                                                0090350901648381060100376429000081
100000000000000000000009035090164838160100376434370           0000000006010037643700000000001N           0  0106001851  03110600000000050000000000001N041006000000000000000130000000000000000000000000000000000000000000000100001038851963MAYRA FORTUNATO                         RUA PONTA GROSSA, 90                                85478000082642653000139  OLINET REPRESENTACOES COMERCIAIS LTDA      000082
2PROTESTO APOS 05 DIAS DO VCTO                                                                                                                                                                                                                                                                                                                                                0090350901648381060100376437000083
100000000000000000000009035090164838160100376444370           0000000006010037644500000000001N           0  0106001850  03110600000000050000000000001N041006000000000000000130000000000000000000000000000000000000000000000100003479664970JUNIOMAR KAMINSKI                       AV NEI NAPOLI, -S/N                                 85478000082642653000139  OLINET REPRESENTACOES COMERCIAIS LTDA      000084
2PROTESTO APOS 05 DIAS DO VCTO                                                                                                                                                                                                                                                                                                                                                0090350901648381060100376445000085
100000000000000000000009035090164838160100376454370           0000000006010037645300000000001N           0  0106001849  03110600000000050000000000001N041006000000000000000130000000000000000000000000000000000000000000000285075109000140AGRICOLA GEMELLI LTDA                   RUA 21 DE ABRIL, -S/N                               85478000082642653000139  OLINET REPRESENTACOES COMERCIAIS LTDA      000086
2PROTESTO APOS 05 DIAS DO VCTO                                                                                                                                                                                                                                                                                                                                                0090350901648381060100376453000087
100000000000000000000009035090164838160100376464370           0000000006010037646100000000001N           0  0106001848  03110600000000050000000000001N220906000000000000000130000000000000000000000000000000000000000000000100002195161973MARCELO VIGO                            LINHA GAUCHA, -S/N                                  85478000082642653000139  OLINET REPRESENTACOES COMERCIAIS LTDA      000088
2PROTESTO APOS 05 DIAS DO VCTO                                                                                                                                                                                                                                                                                                                                                0090350901648381060100376461000089
100000000000000000000009035090164838160100376474370           0000000006010037647P00000000001N           0  0106001847  03110600000000050000000000001N220906000000000000000130000000000000000000000000000000000000000000000207834152000139FARMACIA IBEMA LTDA                     RUA NEY E NAPOLI, 1521                              85478000082642653000139  OLINET REPRESENTACOES COMERCIAIS LTDA      000090
2PROTESTO APOS 05 DIAS DO VCTO                                                                                                                                                                                                                                                                                                                                                009035090164838106010037647P000091
100000000000000000000009035090164838160100376484370           0000000006010037648800000000001N           0  0106001846  03110600000000080000000000001N220906000000000000000200000000000000000000000000000000000000000000000200045690000600ASSOCIACAO BRASILEIRA DE EDUCACAO       R. LINO BENO LENZ,                                  85478000082642653000139  OLINET REPRESENTACOES COMERCIAIS LTDA      000092
2PROTESTO APOS 05 DIAS DO VCTO                                                                                                                                                                                                                                                                                                                                                0090350901648381060100376488000093
100000000000000000000009035090164838160100376494370           0000000006010037649600000000001N           0  0106001845  03110600000000050000000000001N220906000000000000000130000000000000000000000000000000000000000000000100069459690963IVAN MARIO CRISTO                       RUA JUSSARA, 1363                                   85478000082642653000139  OLINET REPRESENTACOES COMERCIAIS LTDA      000094
2PROTESTO APOS 05 DIAS DO VCTO                                                                                                                                                                                                                                                                                                                                                0090350901648381060100376496000095
100000000000000000000009035090164838160100376504370           0000000006010037650P00000000001N           0  0105001844  03110600000000045000000000001N220906000000000000000110000000000000000000000000000000000000000000000100094660697991RODRIGO MIOTTO                          RUA PITANGA, 337                                    85478000082642653000139  OLINET REPRESENTACOES COMERCIAIS LTDA      000096
2PROTESTO APOS 05 DIAS DO VCTO                                                                                                                                                                                                                                                                                                                                                009035090164838106010037650P000097
100000000000000000000009035090164838160100376514370           0000000006010037651800000000001N           0  0106001843  03110600000000050000000000001N220906000000000000000130000000000000000000000000000000000000000000000207912006000184AGRIPLAN PLANEJAMENTO LTDA              RUA IRATI, 650                                      85478000082642653000139  OLINET REPRESENTACOES COMERCIAIS LTDA      000098
2PROTESTO APOS 05 DIAS DO VCTO                                                                                                                                                                                                                                                                                                                                                0090350901648381060100376518000099
100000000000000000000009035090164838160100376524370           0000000006010037652600000000001N           0  0106001819  03110600000000050000000000001N220906000000000000000130000000000000000000000000000000000000000000000278120847000105ASSOCIACAO COMERCIAL E INDUSTRIAL DE IBEAVENIDA NEY E. NAPOLI,                              85478000082642653000139  OLINET REPRESENTACOES COMERCIAIS LTDA      000100
2PROTESTO APOS 05 DIAS DO VCTO                                                                                                                                                                                                                                                                                                                                                0090350901648381060100376526000101
100000000000000000000009035090164838160100376534370           0000000006010037653400000000001N           0  0106002091  03110600000000030000000000001N220906000000000000000070000000000000000000000000000000000000000000000100002599146658LUCIANO LORENCO DA SILVA                AV PARANA,                                          85470000082642653000139  OLINET REPRESENTACOES COMERCIAIS LTDA      000102
2PROTESTO APOS 05 DIAS DO VCTO                                                                                                                                                                                                                                                                                                                                                0090350901648381060100376534000103
100000000000000000000009035090164838160100376544370           0000000006010037654200000000001N           0  0106002090  03110600000000040000000000001N220906000000000000000100000000000000000000000000000000000000000000000204544980000144CAJILA CALCADOS LTDA                    PARQUE INDUSTRIAL,                                  85470000082642653000139  OLINET REPRESENTACOES COMERCIAIS LTDA      000104
2PROTESTO APOS 05 DIAS DO VCTO                                                                                                                                                                                                                                                                                                                                                0090350901648381060100376542000105
100000000000000000000009035090164838160100376554370           0000000006010037655000000000001N           0  0106002004  03110600000000050000000000001N220906000000000000000130000000000000000000000000000000000000000000000280403686000109ORG. CONTABIL IPE SC LTDA               AV PADRE ANCHIETA, 656                              85835000082642653000139  OLINET REPRESENTACOES COMERCIAIS LTDA      000106
2PROTESTO APOS 05 DIAS DO VCTO                                                                                                                                                                                                                                                                                                                                                0090350901648381060100376550000107
100000000000000000000009035090164838160100376564370           0000000006010037656900000000001N           0  0106002003  03110600000000050000000000001N220906000000000000000130000000000000000000000000000000000000000000000100064846644987MACIEL ROCHA DE ANDRADE                 AV PADRE VIEIRA, 978                                85835000082642653000139  OLINET REPRESENTACOES COMERCIAIS LTDA      000108
2PROTESTO APOS 05 DIAS DO VCTO                                                                                                                                                                                                                                                                                                                                                0090350901648381060100376569000109
100000000000000000000009035090164838160100376574370           0000000006010037657700000000001N           0  0106002002  03110600000000050000000000001N220906000000000000000130000000000000000000000000000000000000000000000100009848754920PEDRO CASA SANTA                        RUA SAO LUIZ GONZAGA, 254                           85835000082642653000139  OLINET REPRESENTACOES COMERCIAIS LTDA      000110
2PROTESTO APOS 05 DIAS DO VCTO                                                                                                                                                                                                                                                                                                                                                0090350901648381060100376577000111
100000000000000000000009035090164838160100376584370           0000000006010037658500000000001N           0  0106002001  03110600000000050000000000001N220906000000000000000130000000000000000000000000000000000000000000000100023868899987IRISVALDO QUARESMA DE MORAES            RUA PE. LEONEL FRANCA, 565                          85835000082642653000139  OLINET REPRESENTACOES COMERCIAIS LTDA      000112
2PROTESTO APOS 05 DIAS DO VCTO                                                                                                                                                                                                                                                                                                                                                0090350901648381060100376585000113
100000000000000000000009035090164838160100376594370           0000000006010037659300000000001N           0  0106002000  03110600000000040000000000001N220906000000000000000100000000000000000000000000000000000000000000000100002676584944CLARICE MARQUIS TRICHEZ                 RUA SAO FRANCISCO DE ASSIS, 291                     85835000082642653000139  OLINET REPRESENTACOES COMERCIAIS LTDA      000114
2PROTESTO APOS 05 DIAS DO VCTO                                                                                                                                                                                                                                                                                                                                                0090350901648381060100376593000115
100000000000000000000009035090164838160100376604370           0000000006010037660700000000001N           0  0106001999  03110600000000040000000000001N220906000000000000000100000000000000000000000000000000000000000000000100046715088934CELSO MARIUSSI                          R. ITELVINA FIGUEIRA DOS SANTO, 465                 85945000082642653000139  OLINET REPRESENTACOES COMERCIAIS LTDA      000116
2PROTESTO APOS 05 DIAS DO VCTO                                                                                                                                                                                                                                                                                                                                                0090350901648381060100376607000117
100000000000000000000009035090164838160100376614370           0000000006010037661500000000001N           0  0106001998  03110600000000050000000000001N220906000000000000000130000000000000000000000000000000000000000000000100005412460976ROSANGELA APARECIDA DAMASIO             RUA PADRE MANUEL DA NOBRIGA, 79                     85835000082642653000139  OLINET REPRESENTACOES COMERCIAIS LTDA      000118
2PROTESTO APOS 05 DIAS DO VCTO                                                                                                                                                                                                                                                                                                                                                0090350901648381060100376615000119
100000000000000000000009035090164838160100376624370           0000000006010037662300000000001N           0  0106001997  03110600000000045000000000001N220906000000000000000110000000000000000000000000000000000000000000000100010173986900JOSE EDMUR PICOLO                       PE JOSE MANIANETTE, 399                             85835000082642653000139  OLINET REPRESENTACOES COMERCIAIS LTDA      000120
2PROTESTO APOS 05 DIAS DO VCTO                                                                                                                                                                                                                                                                                                                                                0090350901648381060100376623000121
100000000000000000000009035090164838160100376634370           0000000006010037663100000000001N           0  0106001996  03110600000000035000000000001N220906000000000000000090000000000000000000000000000000000000000000000100004195715903GLEDSON DIONI PRADI                     AV. PADRE ANCHIETA, 774                             85835000082642653000139  OLINET REPRESENTACOES COMERCIAIS LTDA      000122
2PROTESTO APOS 05 DIAS DO VCTO                                                                                                                                                                                                                                                                                                                                                0090350901648381060100376631000123
100000000000000000000009035090164838160100376644370           0000000006010037664P00000000001N           0  0106001995  03110600000000050000000000001N220906000000000000000130000000000000000000000000000000000000000000000100048352047949JOAO EGIDIO ZARPELON                    R. PADRE MAIONETE YVIVES, 398                       85835000082642653000139  OLINET REPRESENTACOES COMERCIAIS LTDA      000124
2PROTESTO APOS 05 DIAS DO VCTO                                                                                                                                                                                                                                                                                                                                                009035090164838106010037664P000125
100000000000000000000009035090164838160100376654370           0000000006010037665800000000001N           0  0106002076  03110600000000050000000000001N220906000000000000000130000000000000000000000000000000000000000000000100005014278990CATIA GOTTARDI                          RUA URUGUAI, 376                                    85945000082642653000139  OLINET REPRESENTACOES COMERCIAIS LTDA      000126
2PROTESTO APOS 05 DIAS DO VCTO                                                                                                                                                                                                                                                                                                                                                0090350901648381060100376658000127
100000000000000000000009035090164838160100376664370           0000000006010037666600000000001N           0  0106002075  03110600000000050000000000001N220906000000000000000130000000000000000000000000000000000000000000000100036838756900OTOMAR GOTTARDI                         CAIXA POSTAL 04, -S/N                               85945000082642653000139  OLINET REPRESENTACOES COMERCIAIS LTDA      000128
2PROTESTO APOS 05 DIAS DO VCTO                                                                                                                                                                                                                                                                                                                                                0090350901648381060100376666000129
100000000000000000000009035090164838160100376674370           0000000006010037667400000000001N           0  0106002074  03110600000000050000000000001N220906000000000000000130000000000000000000000000000000000000000000000100079946100991ALMIR GOTTARDI                          RUA REP ARGENTINA, -S/N                             85945000082642653000139  OLINET REPRESENTACOES COMERCIAIS LTDA      000130
2PROTESTO APOS 05 DIAS DO VCTO                                                                                                                                                                                                                                                                                                                                                0090350901648381060100376674000131
100000000000000000000009035090164838160100376684370           0000000006010037668200000000001N           0  0106002073  03110600000000050000000000001N220906000000000000000130000000000000000000000000000000000000000000000100036960063949SERGIO BATTISTI                         AV BRASIL, 100                                      85945000082642653000139  OLINET REPRESENTACOES COMERCIAIS LTDA      000132
2PROTESTO APOS 05 DIAS DO VCTO                                                                                                                                                                                                                                                                                                                                                0090350901648381060100376682000133
100000000000000000000009035090164838160100376694370           0000000006010037669000000000001N           0  0106002072  03110600000000060000000000001N220906000000000000000150000000000000000000000000000000000000000000000204830367000193MARIUSSI E FILHOS LTDA                  AREA INDUSTRIAL,                                    85945000082642653000139  OLINET REPRESENTACOES COMERCIAIS LTDA      000134
2PROTESTO APOS 05 DIAS DO VCTO                                                                                                                                                                                                                                                                                                                                                0090350901648381060100376690000135
100000000000000000000009035090164838160100376704370           0000000006010037670400000000001N           0  0106002071  03110600000000050000000000001N220906000000000000000130000000000000000000000000000000000000000000000100036960284953IDALMIR JOSE MENEGOTTO                  RUA MEXICO, -S/N                                    85945000082642653000139  OLINET REPRESENTACOES COMERCIAIS LTDA      000136
2PROTESTO APOS 05 DIAS DO VCTO                                                                                                                                                                                                                                                                                                                                                0090350901648381060100376704000137
100000000000000000000009035090164838160100375384370           0000000006010037538400000000001N           0  0128561/225 07110600000000513900000000001N041006000000000000001020410060000000000000000000000000000000000000000203371840000159MARTA APARECIDA MISKULIN FIGUEIREDO ME  AV. SENADOR JOSE ERMINIO DE MORAES, 1400            02357000007612796000182  H. A ROCHA DECORACOES                      000138
2APOS O DIA 07/11/06, COBRAR MORA DE 0.2% AO DIA.                                                                                                                                                                                                ENVIAR TITULO PARA PROTESTO APOS 0 DIAS.                                                                                     0090350901648381060100375384000139
100000000000000000000009035090164838160100376714370           0000000006010037671200000000001N           0  0106002070  03110600000000050000000000001N220906000000000000000130000000000000000000000000000000000000000000000100005848907960WILLIAM FIORI CONSTANTINO               SITIO AGUA NOVO HORIZONTE,                          85945000082642653000139  OLINET REPRESENTACOES COMERCIAIS LTDA      000140
2PROTESTO APOS 05 DIAS DO VCTO                                                                                                                                                                                                                                                                                                                                                0090350901648381060100376712000141
100000000000000000000009035090164838160100376724370           0000000006010037672000000000001N           0  0106002069  03110600000000035000000000001N220906000000000000000090000000000000000000000000000000000000000000000100045360545968DARI FRUHAUF                            SITIO GUA VITORIA, -SN                              85945000082642653000139  OLINET REPRESENTACOES COMERCIAIS LTDA      000142
2PROTESTO APOS 05 DIAS DO VCTO                                                                                                                                                                                                                                                                                                                                                0090350901648381060100376720000143
100000000000000000000009035090164838160100376734370           0000000006010037673900000000001N           0  0106002068  03110600000000050000000000001N220906000000000000000130000000000000000000000000000000000000000000000100028415191987ADAIR MARIUSSI                          RUA CHILE, -S/N                                     85945000082642653000139  OLINET REPRESENTACOES COMERCIAIS LTDA      000144
2PROTESTO APOS 05 DIAS DO VCTO                                                                                                                                                                                                                                                                                                                                                0090350901648381060100376739000145
100000000000000000000009035090164838160100376744370           0000000006010037674700000000001N           0  0106002067  03110600000000050000000000001N220906000000000000000130000000000000000000000000000000000000000000000100049896300925AUGUSTINHO BAROTO VALERO _TICAO_        SITIO SAO LUIZ, 152-LOTE                            85945000082642653000139  OLINET REPRESENTACOES COMERCIAIS LTDA      000146
2PROTESTO APOS 05 DIAS DO VCTO                                                                                                                                                                                                                                                                                                                                                0090350901648381060100376747000147
100000000000000000000009035090164838160100376754370           0000000006010037675500000000001N           0  0106002066  03110600000000050000000000001N220906000000000000000130000000000000000000000000000000000000000000000100036957569934NIVALDO AVELINO BATISTA                 AV REPUBLICA ARGENTINA, -S/N                        85945000082642653000139  OLINET REPRESENTACOES COMERCIAIS LTDA      000148
2PROTESTO APOS 05 DIAS DO VCTO                                                                                                                                                                                                                                                                                                                                                0090350901648381060100376755000149
100000000000000000000009035090164838160100376764370           0000000006010037676300000000001N           0  0106002065  03110600000000050000000000001N220906000000000000000130000000000000000000000000000000000000000000000100019830378934SERGIO MENEGOTO                         AV BRASIL, -S/N                                     85945000082642653000139  OLINET REPRESENTACOES COMERCIAIS LTDA      000150
2PROTESTO APOS 05 DIAS DO VCTO                                                                                                                                                                                                                                                                                                                                                0090350901648381060100376763000151
100000000000000000000009035090164838160100376774370           0000000006010037677100000000001N           0  0106002086  03110600000000050000000000001N220906000000000000000130000000000000000000000000000000000000000000000201935613000183SUPERMERCADO DE PAULA                   AV IVAN FERREIRA DO AMARAL, -S/N                    85408000082642653000139  OLINET REPRESENTACOES COMERCIAIS LTDA      000152
2PROTESTO APOS 05 DIAS DO VCTO                                                                                                                                                                                                                                                                                                                                                0090350901648381060100376771000153
100000000000000000000009035090164838160100376784370           0000000006010037678P00000000001N           0  0106002085  03110600000000055000000000001N220906000000000000000140000000000000000000000000000000000000000000000100005337264923ERNANDES TONET                          RUA ANTONIO P VICENTE, 1234                         85408000082642653000139  OLINET REPRESENTACOES COMERCIAIS LTDA      000154
2PROTESTO APOS 05 DIAS DO VCTO                                                                                                                                                                                                                                                                                                                                                009035090164838106010037678P000155
100000000000000000000009035090164838160100376794370           0000000006010037679800000000001N           0  0106002084  03110600000000055000000000001N220906000000000000000140000000000000000000000000000000000000000000000100086541749949ILIONE DE OLIVEIRA                      RUA JK DE OLIVEIRA, -S/N                            85408000082642653000139  OLINET REPRESENTACOES COMERCIAIS LTDA      000156
2PROTESTO APOS 05 DIAS DO VCTO                                                                                                                                                                                                                                                                                                                                                0090350901648381060100376798000157
100000000000000000000009035090164838160100376804370           0000000006010037680100000000001N           0  0106002083  03110600000000055000000000001N220906000000000000000140000000000000000000000000000000000000000000000100069460299920JOAO LOURENCO NOGUEIRA DE PAULA         AV IVEN FERREIRA DO AMARAL, -S/N                    85408000082642653000139  OLINET REPRESENTACOES COMERCIAIS LTDA      000158
2PROTESTO APOS 05 DIAS DO VCTO                                                                                                                                                                                                                                                                                                                                                0090350901648381060100376801000159
100000000000000000000009035090164838160100376814370           0000000006010037681P00000000001N           0  0106002082  03110600000000055000000000001N220906000000000000000140000000000000000000000000000000000000000000000100006719612921ELAINE CAMPANHOLI                       AV XV DE NOVEMBRO, -S/N                             85408000082642653000139  OLINET REPRESENTACOES COMERCIAIS LTDA      000160
2PROTESTO APOS 05 DIAS DO VCTO                                                                                                                                                                                                                                                                                                                                                009035090164838106010037681P000161
100000000000000000000009035090164838160100376824370           0000000006010037682800000000001N           0  0106002081  03110600000000050000000000001N220906000000000000000130000000000000000000000000000000000000000000000100000018817955ANGELA MARIA GRONEMANN                  RU AIVAM FERREIRA DO AMARAL, -S/N                   85408000082642653000139  OLINET REPRESENTACOES COMERCIAIS LTDA      000162
2PROTESTO APOS 05 DIAS DO VCTO                                                                                                                                                                                                                                                                                                                                                0090350901648381060100376828000163
100000000000000000000009035090164838160100376834370           0000000006010037683600000000001N           0  0106002080  03110600000000055000000000001N220906000000000000000140000000000000000000000000000000000000000000000100003631050933CHAIANE CRISTINA TAVARES KOHL           RUA IVAM FERREIRA DO AMARAL, 470                    85408000082642653000139  OLINET REPRESENTACOES COMERCIAIS LTDA      000164
2PROTESTO APOS 05 DIAS DO VCTO                                                                                                                                                                                                                                                                                                                                                0090350901648381060100376836000165
100000000000000000000009035090164838160100376844370           0000000006010037684400000000001N           0  0106002079  03110600000000050000000000001N220906000000000000000130000000000000000000000000000000000000000000000100021632064839ARAKEN YAMAMOTO URDIALES                RUA ANTONIO P VICENTE, 123                          85408000082642653000139  OLINET REPRESENTACOES COMERCIAIS LTDA      000166
2PROTESTO APOS 05 DIAS DO VCTO                                                                                                                                                                                                                                                                                                                                                0090350901648381060100376844000167
100000000000000000000009035090164838160100376854370           0000000006010037685200000000001N           0  0106002078  03110600000000050000000000001N220906000000000000000130000000000000000000000000000000000000000000000100067925421991MARIA LUIZA DE PAULA DOMBROSO           RU ALAURO PAULINO DA SILVA, -S/N                    85408000082642653000139  OLINET REPRESENTACOES COMERCIAIS LTDA      000168
2PROTESTO APOS 05 DIAS DO VCTO                                                                                                                                                                                                                                                                                                                                                0090350901648381060100376852000169
100000000000000000000009035090164838160100376864370           0000000006010037686000000000001N           0  0106002077  03110600000000060000000000001N220906000000000000000150000000000000000000000000000000000000000000000207492608000120AGROLAR                                 AV UVAM FERREIRA DO AMARAL, -S/N                    85408000082642653000139  OLINET REPRESENTACOES COMERCIAIS LTDA      000170
2PROTESTO APOS 05 DIAS DO VCTO                                                                                                                                                                                                                                                                                                                                                0090350901648381060100376860000171
100000000000000000000009035090164838160100376874370           0000000006010037687900000000001N           0  0106001979  03110600000000050000000000001N220906000000000000000130000000000000000000000000000000000000000000000100003227309963LAUDICEIA PIVA                          R PROGETADA, 40                                     85937000082642653000139  OLINET REPRESENTACOES COMERCIAIS LTDA      000172
2PROTESTO APOS 05 DIAS DO VCTO                                                                                                                                                                                                                                                                                                                                                0090350901648381060100376879000173
100000000000000000000009035090164838160100376884370           0000000006010037688700000000001N           0  0106001978  03110600000000050000000000001N220906000000000000000130000000000000000000000000000000000000000000000205494320000169AGROCEREAIS                             AV PARANA, 390                                      85937000082642653000139  OLINET REPRESENTACOES COMERCIAIS LTDA      000174
2PROTESTO APOS 05 DIAS DO VCTO                                                                                                                                                                                                                                                                                                                                                0090350901648381060100376887000175
100000000000000000000009035090164838160100376894370           0000000006010037689500000000001N           0  0106001977  03110600000000050000000000001N220906000000000000000130000000000000000000000000000000000000000000000100004377863908KATIA REGINA CIPRIANO                   RUA DOS ENCANRADOS, 163                             85937000082642653000139  OLINET REPRESENTACOES COMERCIAIS LTDA      000176
2PROTESTO APOS 05 DIAS DO VCTO                                                                                                                                                                                                                                                                                                                                                0090350901648381060100376895000177
100000000000000000000009035090164838160100376904370           0000000006010037690900000000001N           0  0106001976  03110600000000030000000000001N220906000000000000000070000000000000000000000000000000000000000000000100089496191991NESTOR POSSAMAI                         RODOVIA BR 486, -KM71                               85937000082642653000139  OLINET REPRESENTACOES COMERCIAIS LTDA      000178
2PROTESTO APOS 05 DIAS DO VCTO                                                                                                                                                                                                                                                                                                                                                0090350901648381060100376909000179
100000000000000000000009035090164838160100376914370           0000000006010037691700000000001N           0  0106001975  03110600000000030000000000001N220906000000000000000070000000000000000000000000000000000000000000000100073149365953HUMBERTO ALENCAR BARBOSA                RODOVIA BR486, -KM 71                               85937000082642653000139  OLINET REPRESENTACOES COMERCIAIS LTDA      000180
2PROTESTO APOS 05 DIAS DO VCTO                                                                                                                                                                                                                                                                                                                                                0090350901648381060100376917000181
100000000000000000000009035090164838160100376924370           0000000006010037692500000000001N           0  0106001974  03110600000000050000000000001N220906000000000000000130000000000000000000000000000000000000000000000100053580613987ELAINE SIMONETO SARDA                   RUA VICENTE MACHADO, 1187                           80420011082642653000139  OLINET REPRESENTACOES COMERCIAIS LTDA      000182
2PROTESTO APOS 05 DIAS DO VCTO                                                                                                                                                                                                                                                                                                                                                0090350901648381060100376925000183
100000000000000000000009035090164838160100376934370           0000000006010037693300000000001N           0  0106001973  03110600000000050000000000001N220906000000000000000130000000000000000000000000000000000000000000000278684529000169APM - BRAGANTINA                        ESCOLA COL EST BRAGANTINA, -S/N                     85937000082642653000139  OLINET REPRESENTACOES COMERCIAIS LTDA      000184
2PROTESTO APOS 05 DIAS DO VCTO                                                                                                                                                                                                                                                                                                                                                0090350901648381060100376933000185
100000000000000000000009035090164838160100376944370           0000000006010037694100000000001N           0  0106001972  03110600000000060000000000001N220906000000000000000150000000000000000000000000000000000000000000000100011896191991ARMANDO BENEDITO                        C.X POSTAL 320, -SN                                 85937000082642653000139  OLINET REPRESENTACOES COMERCIAIS LTDA      000186
2PROTESTO APOS 05 DIAS DO VCTO                                                                                                                                                                                                                                                                                                                                                0090350901648381060100376941000187
100000000000000000000009035090164838160100376954370           0000000006010037695P00000000001N           0  0106001971  03110600000000060000000000001N220906000000000000000150000000000000000000000000000000000000000000000100040856186953ROBERTO PASQUALATTO                     POSTO CORREIO, -SN                                  85937000082642653000139  OLINET REPRESENTACOES COMERCIAIS LTDA      000188
2PROTESTO APOS 05 DIAS DO VCTO                                                                                                                                                                                                                                                                                                                                                009035090164838106010037695P000189
100000000000000000000009035090164838160100376964370           0000000006010037696800000000001N           0  0106001969  03110600000000050000000000001N220906000000000000000130000000000000000000000000000000000000000000000100057527520949DENILZA APARECIDA H GUILHERME           COMUNIDADE SAO FRANCISCO   -, -S/N                  85937000082642653000139  OLINET REPRESENTACOES COMERCIAIS LTDA      000190
2PROTESTO APOS 05 DIAS DO VCTO                                                                                                                                                                                                                                                                                                                                                0090350901648381060100376968000191
100000000000000000000009035090164838160100376974370           0000000006010037697600000000001N           0  0106001970  03110600000000050000000000001N220906000000000000000130000000000000000000000000000000000000000000000100007859759934NOLIMITSU KONO                          C.P POSTAL 98, -SN                                  85937000082642653000139  OLINET REPRESENTACOES COMERCIAIS LTDA      000192
2PROTESTO APOS 05 DIAS DO VCTO                                                                                                                                                                                                                                                                                                                                                0090350901648381060100376976000193
100000000000000000000009035090164838160100376984370           0000000006010037698400000000001N           0  0106001968  03110600000000050000000000001N041006000000000000000130000000000000000000000000000000000000000000000100054601940915PEDRO MERGEN                            AV PARANA, 422                                      85937000082642653000139  OLINET REPRESENTACOES COMERCIAIS LTDA      000194
2PROTESTO APOS 05 DIAS DO VCTO                                                                                                                                                                                                                                                                                                                                                0090350901648381060100376984000195
100000000000000000000009035090164838160100376994370           0000000006010037699200000000001N           0  0106001967  03110600000000050000000000001N220906000000000000000130000000000000000000000000000000000000000000000100000500989931DANIELE SILVA MARIUSE                   AV BRASIL, 360                                      85937000082642653000139  OLINET REPRESENTACOES COMERCIAIS LTDA      000196
2PROTESTO APOS 05 DIAS DO VCTO                                                                                                                                                                                                                                                                                                                                                0090350901648381060100376992000197
100000000000000000000009035090164838160100377004370           0000000006010037700P00000000001N           0  0106001966  03110600000000080000000000001N220906000000000000000200000000000000000000000000000000000000000000000100055388124991ISAIAS MANDOTTI                         RUA SANTO ANTONIO, -SN                              85937000082642653000139  OLINET REPRESENTACOES COMERCIAIS LTDA      000198
2PROTESTO APOS 05 DIAS DO VCTO                                                                                                                                                                                                                                                                                                                                                009035090164838106010037700P000199
100000000000000000000009035090164838160100377014370           0000000006010037701800000000001N           0  0106001985  03110600000000050000000000001N220906000000000000000130000000000000000000000000000000000000000000000100093741499900DENILSON BOFFO                          AV PARANA, 280                                      85937000082642653000139  OLINET REPRESENTACOES COMERCIAIS LTDA      000200
2PROTESTO APOS 05 DIAS DO VCTO                                                                                                                                                                                                                                                                                                                                                0090350901648381060100377018000201
100000000000000000000009035090164838160100377024370           0000000006010037702600000000001N           0  0106001964  03110600000000050000000000001N220906000000000000000130000000000000000000000000000000000000000000000205132470000122E. MARQUES MAT DE CONSTR.               AV. PARANA, 491                                     85937000082642653000139  OLINET REPRESENTACOES COMERCIAIS LTDA      000202
2PROTESTO APOS 05 DIAS DO VCTO                                                                                                                                                                                                                                                                                                                                                0090350901648381060100377026000203
100000000000000000000009035090164838160100377034370           0000000006010037703400000000001N           0  0106001963  03110600000000050000000000001N220906000000000000000130000000000000000000000000000000000000000000000100002894339836SANTO BERNARDO NETTO                    CHACARA PRIMAVERA, -SN                              85937000082642653000139  OLINET REPRESENTACOES COMERCIAIS LTDA      000204
2PROTESTO APOS 05 DIAS DO VCTO                                                                                                                                                                                                                                                                                                                                                0090350901648381060100377034000205
100000000000000000000009035090164838160100377044370           0000000006010037704200000000001N           0  0106002064  03110600000000040000000000001N220906000000000000000100000000000000000000000000000000000000000000000100003581812916ALESANDRA MICHELLE PANSIERO             AV SAO PAULO, 217                                   85833000082642653000139  OLINET REPRESENTACOES COMERCIAIS LTDA      000206
2PROTESTO APOS 05 DIAS DO VCTO                                                                                                                                                                                                                                                                                                                                                0090350901648381060100377042000207
100000000000000000000009035090164838160100377054370           0000000006010037705000000000001N           0  0106002063  03110600000000079000000000001N220906000000000000000200000000000000000000000000000000000000000000000203658339000178AUTO MECANICA NOVELLO                   RUA IVAN FERREIRA DO AMARAL, -S/N                   85400000082642653000139  OLINET REPRESENTACOES COMERCIAIS LTDA      000208
2PROTESTO APOS 05 DIAS DO VCTO                                                                                                                                                                                                                                                                                                                                                0090350901648381060100377050000209
100000000000000000000009035090164838160100377064370           0000000006010037706900000000001N           0  0106002062  03110600000000050000000000001N220906000000000000000130000000000000000000000000000000000000000000000202820833000124APAE - IRACEMA DO OESTE                 RUA ELIAS PINHEIRO, 409                             85833000082642653000139  OLINET REPRESENTACOES COMERCIAIS LTDA      000210
2PROTESTO APOS 05 DIAS DO VCTO                                                                                                                                                                                                                                                                                                                                                0090350901648381060100377069000211
100000000000000000000009035090164838160100377074370           0000000006010037707700000000001N           0  0106002061  03110600000000050000000000001N220906000000000000000130000000000000000000000000000000000000000000000200075621000134SIND DOS TRAB RURAIS DE IRACEMA         RUA VEREADOR OLIVEIRA LIMAR, -S/N                   85833000082642653000139  OLINET REPRESENTACOES COMERCIAIS LTDA      000212
2PROTESTO APOS 05 DIAS DO VCTO                                                                                                                                                                                                                                                                                                                                                0090350901648381060100377077000213
100000000000000000000009035090164838160100377084370           0000000006010037708500000000001N           0  0106002060  03110600000000050000000000001N220906000000000000000130000000000000000000000000000000000000000000000100068243103953EDINEI DOMINGOS BOMFIM                  AV PARANA, 79                                       85937000082642653000139  OLINET REPRESENTACOES COMERCIAIS LTDA      000214
2PROTESTO APOS 05 DIAS DO VCTO                                                                                                                                                                                                                                                                                                                                                0090350901648381060100377085000215
100000000000000000000009035090164838160100377094370           0000000006010037709300000000001N           0  0106002059  03110600000000050000000000001N220906000000000000000130000000000000000000000000000000000000000000000100049262262949PEDRO BESSON                            RU AELIAS PINHEIRO, 65                              85833000082642653000139  OLINET REPRESENTACOES COMERCIAIS LTDA      000216
2PROTESTO APOS 05 DIAS DO VCTO                                                                                                                                                                                                                                                                                                                                                0090350901648381060100377093000217
100000000000000000000009035090164838160100377104370           0000000006010037710700000000001N           0  0106002058  03110600000000050000000000001N220906000000000000000130000000000000000000000000000000000000000000000100032318243972LOURIVAL BERNARDINO                     AV SAO PAULO, 803                                   85833000082642653000139  OLINET REPRESENTACOES COMERCIAIS LTDA      000218
2PROTESTO APOS 05 DIAS DO VCTO                                                                                                                                                                                                                                                                                                                                                0090350901648381060100377107000219
100000000000000000000009035090164838160100377114370           0000000006010037711500000000001N           0  0106002057  03110600000000050000000000001N220906000000000000000130000000000000000000000000000000000000000000000100005027970960MARISELMA SEREU                         ESTRADA JACERE -  SITIO SAO JO, -S/N                85833000082642653000139  OLINET REPRESENTACOES COMERCIAIS LTDA      000220
2PROTESTO APOS 05 DIAS DO VCTO                                                                                                                                                                                                                                                                                                                                                0090350901648381060100377115000221
100000000000000000000009035090164838160100377124370           0000000006010037712300000000001N           0  0106002056  03110600000000050000000000001N220906000000000000000130000000000000000000000000000000000000000000000100004073893939FRANCIELE MARCOLIN                      RUA ELIAS PINHEIRO, 302                             85833000082642653000139  OLINET REPRESENTACOES COMERCIAIS LTDA      000222
2PROTESTO APOS 05 DIAS DO VCTO                                                                                                                                                                                                                                                                                                                                                0090350901648381060100377123000223
100000000000000000000009035090164838160100377134370           0000000006010037713100000000001N           0  0106002055  03110600000000050000000000001N220906000000000000000130000000000000000000000000000000000000000000000100025794248904DULCIVAL MORENO LINO                    AV SAO PAULO, 505-MERCADO ANANIAS                   85833000082642653000139  OLINET REPRESENTACOES COMERCIAIS LTDA      000224
2PROTESTO APOS 05 DIAS DO VCTO                                                                                                                                                                                                                                                                                                                                                0090350901648381060100377131000225
100000000000000000000009035090164838160100377144370           0000000006010037714P00000000001N           0  0106002054  03110600000000050000000000001N220906000000000000000130000000000000000000000000000000000000000000000100095998110978CLEIA ELIANA DE OLIVEIRA                RU AELIAS PINHEIRO, 160                             85833000082642653000139  OLINET REPRESENTACOES COMERCIAIS LTDA      000226
2PROTESTO APOS 05 DIAS DO VCTO                                                                                                                                                                                                                                                                                                                                                009035090164838106010037714P000227
100000000000000000000009035090164838160100377154370           0000000006010037715800000000001N           0  0106002053  03110600000000050000000000001N220906000000000000000130000000000000000000000000000000000000000000000100003274701947FABIA DORIGUELO CORREA                  RUA CONSTANTINO FORNER, 177                         85833000082642653000139  OLINET REPRESENTACOES COMERCIAIS LTDA      000228
2PROTESTO APOS 05 DIAS DO VCTO                                                                                                                                                                                                                                                                                                                                                0090350901648381060100377158000229
100000000000000000000009035090164838160100377164370           0000000006010037716600000000001N           0  0106002052  03110600000000050000000000001N220906000000000000000130000000000000000000000000000000000000000000000100003145960970JORGE MARCELO DIBA                      RUA CONSTANTINO FORNER, 176                         85833000082642653000139  OLINET REPRESENTACOES COMERCIAIS LTDA      000230
2PROTESTO APOS 05 DIAS DO VCTO                                                                                                                                                                                                                                                                                                                                                0090350901648381060100377166000231
100000000000000000000009035090164838160100377174370           0000000006010037717400000000001N           0  0106002051  03110600000000050000000000001N220906000000000000000130000000000000000000000000000000000000000000000100033391084987JOSE FRANZOLIN                          RUA VEREADOR OLIVEIRA LIMA, 359                     85833000082642653000139  OLINET REPRESENTACOES COMERCIAIS LTDA      000232
2PROTESTO APOS 05 DIAS DO VCTO                                                                                                                                                                                                                                                                                                                                                0090350901648381060100377174000233
100000000000000000000009035090164838160100377184370           0000000006010037718200000000001N           0  0106002050  03110600000000050000000000001N220906000000000000000130000000000000000000000000000000000000000000000204630805000170MERCADO PADOVAN                         AV SAO PAULO, 302                                   85833000082642653000139  OLINET REPRESENTACOES COMERCIAIS LTDA      000234
2PROTESTO APOS 05 DIAS DO VCTO                                                                                                                                                                                                                                                                                                                                                0090350901648381060100377182000235
100000000000000000000009035090164838160100377194370           0000000006010037719000000000001N           0  0106002049  03110600000000050000000000001N220906000000000000000130000000000000000000000000000000000000000000000100039751759900JOSE MARIA DE SOUZA                     RUA CONSTANTINO FORNER, -S/N                        85833000082642653000139  OLINET REPRESENTACOES COMERCIAIS LTDA      000236
2PROTESTO APOS 05 DIAS DO VCTO                                                                                                                                                                                                                                                                                                                                                0090350901648381060100377190000237
100000000000000000000009035090164838160100377204370           0000000006010037720400000000001N           0  0106002048  03110600000000050000000000001N220906000000000000000130000000000000000000000000000000000000000000000100079337503972IARA SUYAMA FERRARI                     ESTRADA ALVORADA, -LOTE 178                         85833000082642653000139  OLINET REPRESENTACOES COMERCIAIS LTDA      000238
2PROTESTO APOS 05 DIAS DO VCTO                                                                                                                                                                                                                                                                                                                                                0090350901648381060100377204000239
100000000000000000000009035090164838160100377214370           0000000006010037721200000000001N           0  0106002047  03110600000000050000000000001N220906000000000000000130000000000000000000000000000000000000000000000100070711410968EDIMILSON ALVES MOREIRA                 R. DR CELSO LICINIO, 470                            85833000082642653000139  OLINET REPRESENTACOES COMERCIAIS LTDA      000240
2PROTESTO APOS 05 DIAS DO VCTO                                                                                                                                                                                                                                                                                                                                                0090350901648381060100377212000241
100000000000000000000009035090164838160100377224370           0000000006010037722000000000001N           0  0106002046  03110600000000050000000000001N220906000000000000000130000000000000000000000000000000000000000000000100082013861915MARINA A MAULONI                        RUA PROF VIEIRA DE ALENCAR, 357                     85833000082642653000139  OLINET REPRESENTACOES COMERCIAIS LTDA      000242
2PROTESTO APOS 05 DIAS DO VCTO                                                                                                                                                                                                                                                                                                                                                0090350901648381060100377220000243
100000000000000000000009035090164838160100377234370           0000000006010037723900000000001N           0  0106002045  03110600000000050000000000001N220906000000000000000130000000000000000000000000000000000000000000000207103147000156BINDGALVAO EQTOS AGROIND LTDA           AV SAO PAULO, 441                                   85833000082642653000139  OLINET REPRESENTACOES COMERCIAIS LTDA      000244
2PROTESTO APOS 05 DIAS DO VCTO                                                                                                                                                                                                                                                                                                                                                0090350901648381060100377239000245
100000000000000000000009035090164838160100377244370           0000000006010037724700000000001N           0  0106002030  03110600000000060000000000001N220906000000000000000150000000000000000000000000000000000000000000000204456683000147SANTALEM MATERIAIS DE CONTRUCAO LTDA    RUA EUXODOXIO ANTONIO BADOTTI, 19                   85400000082642653000139  OLINET REPRESENTACOES COMERCIAIS LTDA      000246
2PROTESTO APOS 05 DIAS DO VCTO                                                                                                                                                                                                                                                                                                                                                0090350901648381060100377247000247
100000000000000000000009035090164838160100377254370           0000000006010037725500000000001N           0  0106002029  03110600000000080000000000001N220906000000000000000200000000000000000000000000000000000000000000000277847929000690PAROQUIA NOSSA SENHORA DE FATIMA        RUA SANTA CATARINA, 137                             85400000082642653000139  OLINET REPRESENTACOES COMERCIAIS LTDA      000248
